:020000040800F2
:1000000000000220512C0008A12C0008A12C00089F
:10001000A12C0008A12C0008A12C00080000000061
:10002000000000000000000000000000A12C0008FB
:10003000A12C000800000000A12C0008FF180008F7
:10004000A12C0008A12C0008A12C0008A12C00085C
:10005000A12C0008A12C0008E9190008EF190008DC
:10006000F5190008FB190008011A0008A12C000866
:10007000A12C0008A12C0008A12C0008A12C00082C
:10008000A12C0008A12C0008A12C0008A12C00081C
:10009000A12C0008A12C0008A12C0008071A0008B8
:1000A00019160008311500082D160008551500080E
:1000B000691500087D15000891150008A12C00089D
:1000C000A12C0008A12C0008A12C0008A12C0008DC
:1000D000A12C0008412600085926000875260008B2
:1000E0001D1A0008A12C0008A12C000841160008C8
:1000F000E11500085516000805160008A12C000897
:10010000A12C0008A12C0008A5150008A12C0008AE
:1001100091260008A9260008B9150008CD15000889
:10012000A12C0008A12C0008A12C0008A12C00087B
:10013000A12C0008A12C0008A12C0008A12C00086B
:10014000A12C0008A12C0008A12C0008A12C00085B
:10015000A12C0008A12C0008A12C0008C126000831
:10016000A12C0008A12C0008A12C0008A12C00083B
:10017000A12C0008A12C0008A12C00080000000000
:08018000A12C0008A12C0008CD
:10018800034613F8012B002AFBD1181A01387047CF
:1001980053B94AB9002908BF00281CBF4FF0FF31E6
:1001A8004FF0FF3000F00CB8ADF1080C6DE904CE4B
:1001B80003F008F8DDF804E0DDE9022304B0704735
:1001C800704700BF10B5054C237833B9044B13B101
:1001D8000448AFF300800123237010BDA80000205D
:1001E80000000000A434000808B5034B1BB1034904
:1001F8000348AFF3008008BD00000000AC000020F9
:10020800A434000808B5094B0021186802F046FD1F
:10021800074B0121186802F041FDBDE80840054878
:1002280006224FF4165102F041BC00BF0000002026
:1002380004000020580200200D4B10B5186802F089
:10024800D1FD012804460CD10A490B4802F0A4FC50
:1002580021460D2002F08CFDBDE81040032002F07D
:10026800FDBD0649044802F097FC0021F1E700BFF4
:1002780000000020BC34000858020020CB340008DD
:100288007047000038B50E4A0E4B054618784FF4F3
:100298007A73B3FBF0F31068B0FBF3F000F0A8F842
:1002A800044658B90F2D09D8024629464FF0FF30A9
:1002B80000F04AF8044B20461D6038BD0120FCE7D9
:1002C8003C000020080000200C00002008B50B4B63
:1002D8001A6842F400721A601A6842F480621A605E
:1002E8001A6842F480721A60032000F01BF800209C
:1002F800FFF7C8FFFFF7C4FF002008BD003C02401D
:10030800034A044B11681B780B441360704700BF05
:10031800C400002008000020014B1868704700BF87
:10032800C40000200749CA6822F4E06203021204EC
:1003380003F4E063120C134343F0BF6343F4003348
:10034800CB60704700ED00E0164B30B5DC68C4F3B5
:100358000224C4F10705231D042D28BF0425062BFC
:100368004FF0FF338CBF033C002403FA05F521EA64
:100378000501A34022EA0302A140002841EA020342
:10038800ACBF00F16040084A4FEA0313B8BF00F061
:100398000F00DBB2AABF00F56140135480F80033A8
:1003A80030BD00BF00ED00E014ED00E0002808DBE0
:1003B8000123420900F01F0003FA00F0014B43F843
:1003C8002200704700E100E000280DDB430901220C
:1003D80000F01F0002FA00F02033044A42F823001C
:1003E800BFF34F8FBFF36F8F704700BF00E100E08E
:1003F8000138B0F1807F0BD24FF0E023054A5861F5
:10040800F02182F823100020072298611A617047B2
:100418000120704700ED00E0002809DB43090122B4
:1004280000F01F0002FA00F06033024A42F823008D
:10043800704700BF00E100E0704708B5FFF7FCFF18
:1004480008BD704710B5044650B1437903F0FF0268
:1004580013B90271FFF7F5FF01236371002010BD86
:100468000120FCE710B5044640B10223037101F0F6
:10047800DFF9002020616071207110BD0120FCE7C8
:1004880010B504680122236801F0100102FA01F195
:1004980023EA010121600271002010BD70B50446F5
:1004A800866DFFF739FF94F83530022B054606D0E4
:1004B80080236365002384F83430012070BD2368ED
:1004C8001A6822F016021A605A6922F080025A61EC
:1004D800226C0AB9A26C1AB11A6822F008021A60D2
:1004E8001A6822F001021A6023681B6813F00103DE
:1004F8000AD1E16D3F228A40B260012284F835209A
:1005080084F834301846D9E7FFF706FF401B052862
:10051800EAD9202363650320002384F8350084F892
:100528003430CBE790F83530022B03D08023436575
:10053800012070470268052380F83530136823F0DE
:100548000103136000207047044A5169014208B54D
:1005580002D0506101F02EFA08BD00BF003C0140F6
:100568002DE9F341044640B30368DD0710D423683E
:1005780098075ED423681A0700F1A08023685B07F8
:1005880000F1C080A069002840F0288100202BE0FD
:100598008F4B9A6802F00C02042A07D09A6802F07E
:1005A8000C02082A0BD15A68510208D5884B1B68DF
:1005B8009A03DCD56368002BD9D1012014E0626866
:1005C800B2F5803F13D11A6842F480321A60FFF7FF
:1005D800A3FE7F4E054633689B03C8D4FFF79CFEF5
:1005E800401B6428F7D9032002B0BDE8F081784D9C
:1005F800B2F5A02F2B6807D143F480232B602B681A
:1006080043F480332B60E2E723F480332B602B68BC
:1006180023F480232B60002AD9D1FFF77DFE0646FC
:100628002B689F03A3D5FFF777FE801B6428F7D9B3
:10063800D9E7674B9A6812F00C0F07D09A6802F056
:100648000C02082A11D15B685E020ED4604A136856
:100658009D0702D5E368012BAFD11368216923F008
:10066800F80343EAC103136084E7E268594BB2B167
:1006780001221A60FFF750FE554D06462B68980771
:1006880007D52B68226923F0F80343EAC2032B60DD
:1006980070E7FFF741FE801B0228EFD9A3E71A6035
:1006A800FFF73AFE4A4E0546336899077FF562AF71
:1006B800FFF732FE401B0228F6D994E76269454BE2
:1006C80082B10122C3F8802EFFF726FE404E054670
:1006D800736F9F073FF552AFFFF71EFE401B0228BE
:1006E800F6D980E7C3F8802EFFF716FE384E054688
:1006F800736F98077FF542AFFFF70EFE401B022885
:10070800F6D970E7324B1A6C12F0805228D1019258
:100718001A6C42F080521A641B6C03F080530193E8
:10072800019B01272C4D2B68D9051BD5A368284DA3
:10073800012B27D12B6F43F001032B67FFF7ECFD4B
:10074800234E054641F28838336F9B0739D5002F71
:100758003FF418AF1E4A136C23F08053136411E75B
:100768000027DFE72B6843F480732B60FFF7D4FD85
:1007780006462B68DA05D9D4FFF7CEFD801B022880
:10078800F7D930E7052B04D12B6F43F004032B670F
:10079800D0E72A6F22F001022A672A6F22F00402AA
:1007A8002A67002BCAD1FFF7B7FD41F28838064601
:1007B8002B6F9807CBD5FFF7AFFD801B4045F7D9C6
:1007C80011E7FFF7A9FD401B4045BDD90BE700BF66
:1007D800003802400000474200700040364DAB68C8
:1007E80003F00C03082B3DD0344B002202281A6674
:1007F8002BD1FFF791FD06462B6899011FD4D4E948
:1008080007321343626A43EA8213E26A43EA0263E5
:10081800A26A5208013A43EA02436B60274B264D0D
:1008280001221A66FFF778FD04462B689A013FF506
:10083800ADAEFFF771FD001B0228F6D9D3E6FFF72E
:100848006BFD801B0228D7D9CDE6FFF765FD04466E
:100858002B689B017FF59AAEFFF75EFD001B02280F
:10086800F6D9C0E601283FF4BFAE6B68E26903F42D
:10087800800191427FF4A1AE216A03F03F028A42CF
:100888007FF49BAE616A47F6C0721A40B2EB811FD3
:100898007FF493AEA26A520803F44031013AB1EBF7
:1008A800024F7FF48AAEE26A03F07063B3EB026F23
:1008B8003FF46CAE81E600BF0038024000004742BA
:1008C800134908B58B6803F00C03042B1CD0082BC4
:1008D8001CD14A684B68496813F4800314BF0D485B
:1008E8000D48C1F3881118BF002302F03F02A1FB95
:1008F8000001FFF74DFC064B5B68C3F3014301336E
:100908005B00B0FBF3F008BD0248FCE70248FAE7D9
:100918000038024000127A000024F4002DE9F0416A
:100928000D46044610B90120BDE8F081444B1A6811
:1009380002F007028A4228D3226897072DD4D007ED
:1009480041D43F4B1A6802F00702AA4266D82268CF
:1009580051076CD4130707D53A4A2169936823F4E1
:10096800604343EAC1039360FFF7AAFF354B364A59
:100978009B68C3F30313D35CD840344B1860344BE3
:100988001868FFF77FFC0020CEE7CAB21A701B6810
:1009980003F007038B42C6D1CEE72A4B12F0040FAF
:1009A8001EBF996841F4E0519960160742BF9968E3
:1009B80041F4604199602349A0688B6823F0F003F3
:1009C80003438B60BBE762681E4B012A1CD11B687E
:1009D80013F4003FA7D01B4EB36823F0030313435F
:1009E800B360FFF799FC41F288380746B36862683C
:1009F80003F00C03B3EB820FA3D0FFF78DFCC01BF1
:100A08004045F3D903208FE7911E01291B6802D8BE
:100A180013F0007FDEE713F0020FDBE7EAB21A708B
:100A28001B6803F00703AB427FF47DAF8FE70549EE
:100A3800E0688B6823F4E05303438B608AE700BFC8
:100A4800003C024000380240203500083C000020ED
:100A58000C000020044B054A9B68C3F38223D35C37
:100A6800034A1068D8407047003802403035000803
:100A78003C000020044B054A9B68C3F34233D35C17
:100A8800034A1068D84070470038024030350008E3
:100A98003C0000207047704703681A69910710B539
:100AA80004460ED5DA6892070BD56FF002021A6178
:100AB800012202779B699B0777D000F009FE00238B
:100AC800237723681A69500710D5DA6851070DD5BE
:100AD8006FF004021A61022222779B6913F4407FA7
:100AE800204668D000F0F4FD0023237723681A69B4
:100AF80012070FD5DA6810070CD56FF008021A61D3
:100B080004222277DB69990720465AD000F0E0FDDD
:100B18000023237723681A69D20610D5DA68D0062D
:100B28000DD56FF010021A6108222277DB6913F4E1
:100B3800407F20464BD000F0CBFD0023237723686D
:100B48001A69D10708D5DA68D20705D56FF001020E
:100B58001A61204600F099FD23681A69100608D525
:100B6800DA68110605D56FF080021A61204600F098
:100B7800C8F823681A69520608D5DA68500605D5F8
:100B88006FF040021A612046FFF785FF23681A6953
:100B9800910622D5DA6892061FD56FF0200220460A
:100BA8001A61BDE8104000F0ABB800F08FFD204698
:100BB800FFF770FF83E700F089FD2046FFF76AFF23
:100BC80092E700F083FD2046FFF764FFA0E700F0FE
:100BD8007DFD2046FFF75EFFAFE710BD304A036892
:100BE800904212D0B0F1804F0FD0A2F57C429042D3
:100BF8000BD002F58062904207D002F580629042E5
:100C080003D002F57842904219D14A6823F0700364
:100C18001343234A904229D0B0F1804F26D0A2F541
:100C28007C42904222D002F5806290421ED002F5AA
:100C3800806290421AD002F57842904216D0194A42
:100C4800904213D002F5806290420FD002F5806284
:100C580090420BD0A2F59832904207D002F58062FC
:100C6800904203D002F58062904203D1CA6823F40F
:100C7800407313434A6923F08003134303608B686E
:100C8800C3620B688362064B984203D003F5806306
:100C9800984201D10B69036301234361704700BF88
:100CA800000001400040014010B5044630B390F800
:100CB8003D3003F0FF021BB980F83C2001F06EFACA
:100CC8000223206884F83D30211DFFF787FF0123A8
:100CD80084F84630002084F83E3084F83F3084F8A9
:100CE800403084F8413084F8423084F8433084F846
:100CF800443084F8453084F83D3010BD0120FCE7CD
:100D080070477047026802F10C0353E8003F23F470
:100D180090730C3242E8003102680029F2D102F1E6
:100D2800140353E8003F23F0010302F1140C4CE8CC
:100D380000310029F3D1036B012B0BD102F10C0315
:100D480053E8003F23F0100302F10C0C4CE800318B
:100D58000029F3D1202380F83E3000230363704735
:100D68000268C168136923F440530B4370B51361DB
:100D7800054683680069D168034368690343E869E5
:100D880021F4164121F00C0103430B43D36053694E
:100D9800A96923F440730B4353611F4B9A4203D054
:100DA80003F580639A4223D1FFF764FEEB691921AA
:100DB800B3F5004FD5E90046A0FB01011BD1B219DC
:100DC8004FF000035B41FFF7E3F96421B0FBF1F555
:100DD80001FB1503DB003233B3FBF1F303F0070229
:100DE8005B0002EB051203F4F8731344A36070BDB3
:100DF800FFF730FEDAE7B200B30FFFF7C9F9642254
:100E0800B0FBF2F102FB11031B013233B3FBF2F327
:100E180003EB0113EAE700BF00100140704710B56B
:100E2800044640B390F83D3003F0FF021BB980F848
:100E38003C20FFF7F3FF2268242384F83D30D36871
:100E480023F40053D3602046FFF78AFF23681A690A
:100E580022F490421A615A6922F02A025A61DA6829
:100E680042F40052DA6000202023206484F83D30E8
:100E780084F83E3010BD0120FCE710B5044660B38D
:100E880090F83D3003F0FF021BB980F83C20FFF7D3
:100E9800C5FF2268242384F83D30D36823F4005327
:100EA800D3602046FFF75CFF23681A6922F490425A
:100EB8001A615A6922F022025A615A6942F00802FC
:100EC8005A61DA6842F40052DA6000202023206474
:100ED80084F83D3084F83E3010BD0120FCE790F8DE
:100EE8003D30202B18D1A9B1A2B190F83C30012B8C
:100EF80012D0C28401628284016800232122036423
:100F080080F83C3080F83D20CA6842F08002CA6010
:100F180018467047012070470220704708B5806B5B
:100F28000023C385C38401F049FB08BD704707B59A
:100F38008168836A0268B1F5805F3ED10169002942
:100F48003ED15268C2F3080223F8022B8362C38D94
:100F5800013B9BB2C385002B2CD10268D16821F0DC
:100F68002001D160D16821F48071D160516921F0EC
:100F780001015161202280F83E20026B012A02689B
:100F880028D1036302F10C0353E8003F23F0100358
:100F980002F10C0C4CE800310029F3D11368DB0690
:100FA80005D501911368019353680193019B818DC5
:100FB800FFF7BCFF03B05DF804FB39B9016929B933
:100FC8005268D2B21A70836A0133BFE7526802F0DE
:100FD8007F02F7E701F0ECFAECE70000036837B5A9
:100FE8001A68D9685D6912F00F0F04460CD195068E
:100FF80070D58D066ED590F83E30222B64D103B0A3
:10100800BDE83040FFF793BF05F0010001F490758B
:1010180005435FD0D50705D5CB0542BF236C43F008
:1010280001032364550704D518B1236C43F0020368
:101038002364930704D518B1236C43F00403236495
:10104800150707D501F0200303431EBF236C43F0A7
:1010580008032364236C002B36D0900608D58A0633
:1010680006D594F83E30222B02D12046FFF75FFFC9
:1010780023685B69256C03F0400305F008051D43F0
:10108800204623D0FFF73EFE226853695B0618D539
:1010980002F1140353E8003F23F0400302F1140067
:1010A80040E800310029F3D1A06B50B1724B0365C1
:1010B800FFF738FA40B1A06B036D03B0BDE83040CC
:1010C8001847204601F07AFA03B030BD01F076FAED
:1010D8002564F9E7206B012840F09180D50640F19E
:1010E8008E80C80640F18B80002201921A68019216
:1010F8005A680192019A5A6955064CD5A16B0A683B
:10110800526892B2002ADFD0A08D9042DCD9E285E5
:10111800CA69B2F5807F36D003F10C0252E8002F7D
:1011280022F4807203F10C0040E800210029F3D179
:1011380003F1140252E8002F22F0010203F1140017
:1011480040E800210029F3D103F1140252E8002FEE
:1011580022F0400203F1140040E800210029F3D1F5
:10116800202284F83E20216303F10C0252E8002F6C
:1011780022F0100203F10C0040E800210029F3D10D
:10118800A06BFFF78BF9E38DA18DC91A89B22046B0
:10119800FFF7CCFE98E7E18D8AB2E18D89B200298C
:1011A80092D0A18D891A89B200298DD003F10C0241
:1011B80052E8002F22F4907203F10C0545E8002054
:1011C8000028F3D103F1140252E8002F22F00102A3
:1011D80003F1140545E800200028F3D1202284F803
:1011E8003E20206303F10C0252E8002F22F0100287
:1011F80003F10C0545E800200028F3D1C7E71006E5
:1012080028D50D0626D594F83D20212A7FF45CAF19
:10121800A168226AB1F5805F17D12169A9B932F8AE
:10122800021BC1F3080159602262E28C013A92B2B2
:10123800E284002A7FF448AFDA6822F08002DA609C
:10124800DA6842F04002DA603EE7511C2162127807
:101258005A60EAE750067FF537AF4A067FF534AFA4
:10126800DA6822F04002DA60202384F83D30204614
:1012780001F0A1F928E700BF250F000890F83C30DD
:10128800012B11D00268242380F83D30D36823F065
:101298000C0343F00803D360202380F83D3000237B
:1012A80080F83C30184670470220704790F83C3070
:1012B800012B11D00268242380F83D30D36823F035
:1012C8000C0343F00403D360202380F83D3000234F
:1012D80080F83C30184670470220704790F83D204F
:1012E80090F83E0010437047C28500238285222271
:1012F800036480F83E20026980F83C30816203680C
:101308001AB1DA6842F48072DA605A6942F001026E
:101318005A61DA6842F02002DA600020704770B43F
:1013280090F83E60202E10D161B15AB190F83C403F
:10133800012C0AD0012480F83C400024046370BCCE
:10134800FFF7D2BF012070BC70470220FBE783681B
:1013580010B504462BB10322014698470023C4E97F
:10136800023310BD836810B5044613B10322014649
:101378009847204610BD0000264A904203462ED0CA
:10138800B0F1804F2DD0A2F57C4290422BD002F5CF
:101398008062904229D002F58062904227D04FF6B1
:1013A800FF701D4A934224D01C4A934223D01C4A02
:1013B800934222D002F57052934220D0194A9342A8
:1013C8001FD0194A93421ED0184A93421DD0184A7A
:1013D80093421CD0174A934208BF0D207047002043
:1013E800DFE70120DDE70220DEE70320DFE7042056
:1013F800E4E70520E5E70620E6E70720E7E7082019
:10140800E8E7092070470A2070470B2070470C2036
:10141800704700BF00000140001000400014004069
:101428000004014000440140004801400018004009
:10143800001C004000200040014670B5044651F8E9
:10144800100FFFF799FF0546084600F055FD094AB9
:10145800002342F8253004F16006E36004F1B0058A
:10146800B54204D0103D2846FFF77CFFF8E7204638
:1014780070BD00BFC8000020F8B504460846FFF755
:101488007BFF4FF6FF73984200D1FEE7236903B153
:10149800FEE71C4DA36404F10C0245F8202004F17A
:1014A80010060E22C4E90C33C4E90E33C4E9103324
:1014B800C4E91623216184F82C3084F84C3084F870
:1014C8004D30E460304600F01FFC04F1600504F183
:1014D800B00728461035FFF73AFFBD42F9D100237F
:1014E8004FF6FF72C4E90033C4E90632C4E9083391
:1014F800A36063618023A3623046BDE8F840FFF72C
:10150800D3BB00BFC800002010B500230446836683
:101518008367C0F88830C0F89830C0F8A8300361F5
:10152800FFF7AAFF204610BD10B5074C206810B180
:101538000430FFF7B1FA606A20B1BDE8104004300A
:10154800FFF7AABA10BD00BFC8000020034B1868F7
:1015580010B10430FFF7A0BA704700BFC8000020E0
:10156800034B586810B10430FFF796BA704700BFB4
:10157800C8000020034B986810B10430FFF78CBAFC
:10158800704700BFC8000020034BD86810B1043072
:10159800FFF782BA704700BFC8000020034B1869E4
:1015A80010B10430FFF778BA704700BFC8000020B8
:1015B800034B586910B10430FFF76EBA704700BF8B
:1015C800C8000020034B986910B10430FFF764BAD3
:1015D800704700BFC800002010B5074CE06910B183
:1015E8000430FFF759FA206B20B1BDE810400430F1
:1015F800FFF752BA10BD00BFC8000020034BD869DE
:1016080010B10430FFF748BA704700BFC800002087
:10161800034B186A10B10430FFF73EBA704700BF99
:10162800C8000020034B986A10B10430FFF734BAA1
:10163800704700BFC8000020034BD86A10B10430BF
:10164800FFF72ABA704700BFC8000020034B586B49
:1016580010B10430FFF720BA704700BFC80000205F
:10166800826810B50AB901F015FFBDE81040C368DB
:10167800184708B500B9FEE700F044FB0068836E20
:1016880013B16030FFF7ECFF08BDFFF7F2BF10B5EC
:1016980000B9FEE7037F013B072B10D8DFE803F012
:1016A80014040F100F0F0F12022400F02BFB006818
:1016B800063400EB041083680BB1FFF7D1FF10BDAF
:1016C8000324F2E70424F0E70124EEE7FFF7DFBF85
:1016D800FFF7DDBF01F006BC01F00CBC8AB00023A7
:1016E80008287CD8DFE800F00513202D3A4754611C
:1016F8006E0001933B4B3C481A6B42F001021A639F
:101708001B6B03F001030193019B0AB0704702931E
:10171800344B36481A6B42F002021A631B6B03F013
:1017280002030293029BF0E703932E4B30481A6B97
:1017380042F004021A631B6B03F004030393039B38
:10174800E3E70493274B2B481A6B42F008021A630D
:101758001B6B03F008030493049BD6E70593214B06
:1017680025481A6B42F010021A631B6B03F0100332
:101778000593059BC9E706931A4B20481A6B42F05C
:1017880020021A631B6B03F020030693069BBCE739
:101798000793144B1A481A6B42F040021A631B6BEA
:1017A80003F040030793079BAFE708930D4B1548D9
:1017B8001A6B42F080021A631B6B03F080030893D4
:1017C800089BA2E70993074B0F481A6B42F48072F3
:1017D8001A631B6B03F480730993099B95E7002038
:1017E80093E700BF003802400000024000040240B6
:1017F80000080240000C02400010024000140240A1
:1018080000180240001C02400020024008B50749A9
:1018180000F042FAC0F3C430012802D0022802D0F6
:10182800FEE7002008BD1020FCE700BF383500089F
:101838000268094B9A420DD103F5E2331A6A42F065
:1018480000521A621A6A22F000521A621A6C22F0C6
:1018580000521A64704700BF0074004010B50B496D
:1018680086B0044600F0F6F9019060B12046FFF713
:10187800CDFF30F01003014605D101A8FEF700FEA8
:1018880001A8FEF7EFFD06B010BD00BF383500080F
:1018980073B51549154D064600F0DCF9FFF76CFDE8
:1018A80055F82030044673B90F49304600F0D2F994
:1018B8000190B020FFF70EFF01990646FFF724FEBE
:1018C80055F824301E6055F824301C684CB1204669
:1018D800FFF7B2FDB021204602B0BDE87040FFF727
:1018E800FBBE02B070BD00BF5C350008C800002018
:1018F800FEF712BD704708B5FEF702FDFEF79DFD25
:10190800FFF7F8FF08BD704784B0114B0022019221
:10191800196C41F080511964196C01F080510191E2
:1019280001990292596C41F480415964596C01F44F
:1019380080410291029903921A6B42F480521A6311
:101948001B6B03F480530393039B04B0704700BFE1
:10195800003802400C4BD3F8FC20D2015EBFD3F80C
:10196800FC2042F08072C3F8FC20084B00225A6029
:101978001A6842F001021A6000BF00BF00BF586831
:10198800B0FA80F04009704700ED00E0001000E078
:1019980008B5FFF7B9FFFFF7DDFFFEF797FCFFF784
:1019A800B2FF00F0BFFEBDE808400148FEF74ABD9F
:1019B800340000200023012803F1010202D040086E
:1019C8001346F8E71421DBB24B43044A181D1044B0
:1019D800816811B113441B69184770470001002042
:1019E8000120FEF7B1BD0220FEF7AEBD0420FEF7D0
:1019F800ABBD0820FEF7A8BD1020FEF7A5BD38B581
:101A080005242025A8B2FEF79FFD013C4FEA4505B5
:101A1800F8D138BD38B506244FF48065A8B2FEF772
:101A280093FD013C4FEA4505F8D138BD204B07210D
:101A38001975082183F82810092183F83C100A2118
:101A4800062283F8501017211A7083F864100022B8
:101A580083F8781083F88C1083F8A01083F8B410FA
:101A68002821DA601A625A639A64DA651A67C3F839
:101A78008420C3F89820C3F8AC20C3F8C02083F8AA
:101A8800C810C3F8D42083F8DC10C3F8E82083F822
:101A9800F010C3F8FC2083F80411C3F8102183F870
:101AA8001811C3F8242183F82C11C3F83821704782
:101AB8000001002038B5054CA4F5A075143C201D84
:101AC800FFF750FCAC42F9D138BD00BF40020020FE
:101AD80030B591FAA1F391FAA1F1B3FA83F3C4688E
:101AE8005B000325B1FA81F105FA03F3490024EA02
:101AF80003038A401343C36030BD431C04D00C3138
:101B080051F80C3C5A1C01D100207047834201F166
:101B18000C01F5D101207047F8B5471C06460D4663
:101B280000D1FEE700F00F023D4BC0F3031053F85D
:101B38002240FFF7D3FD94FAA4F2B2FA82F2836846
:101B48000327520007FA02F223EA020794FAA4F3E1
:101B5800B3FA83F3590003238B403B4305F0070294
:101B68008360032A03D8DFE802F01D1D031DFEE78A
:101B78003607C5F306213ED5230A93FAA3F6B6FA2B
:101B880086F6476A93FAA3F3B6004FF00F0CB3FA40
:101B980083F30CFA06F69B0027EA060601FA03F31C
:101BA8003343436294FAA4F1B1FA81F1036849001E
:101BB800032606FA01F123EA010194FAA4F3B3FA21
:101BC80083F35B0002FA03F3013A0B43012A036033
:101BD80005D843682A074CBF2343A3434360C5F392
:101BE8000112012A02D0022A18BF00222146BDE8AC
:101BF800F840FFF76DBF94FAA4F6B6FA86F6036AC2
:101C0800B6000F2707FA06F623EA060694FAA4F3A5
:101C1800B3FA83F39B0001FA03F333430362C1E78A
:101C2800E0340008431C06D17047834202D189681A
:101C3800FFF772BF0C310B685A1CF6D1FEE70B6830
:101C48005A1C01D100207047834201D1486870476F
:101C58000C31F4E7431C01D0FFF7F1BF00207047B7
:101C68004B6813B94FF0FF307047834201D10868C1
:101C780070470C31F4E708B1FFF7F2BF4FF0FF30BF
:101C8800704703460868421C00D17047984201D14A
:101C9800886870470C31F5E7431C01D0FFF7F1BFA6
:101CA8007047884204D018B100290CBF01460021B2
:101CB800084670471049D1F8883043F47003C1F8DA
:101CC80088300E4B1A6842F001021A6000229A60AE
:101CD8001A6822F0847222F480321A60084A5A6024
:101CE8001A6822F480221A604FF43F02DA604FF03B
:101CF80000638B60704700BF00ED00E000380240D1
:101D0800103000240438704703686D4A93428EB03F
:101D18002AD1002200926B4A516C41F001015164B2
:101D2800526C02F001020092009A674A93425DD118
:101D380000220592634A116C41F010011164126C83
:101D480002F010020592059A604A93425DD1002381
:101D58000A935C4B5A6C42F480225A645B6C03F41D
:101D680080230A930A9B26E0B3F1804F25D0584A76
:101D780093422FD0574A934257D0574A9342D4D1CF
:101D8800002204924F4A116C41F008011164126C50
:101D980002F008020492049A504A9342D4D10023D4
:101DA8000993484B5A6C42F400325A645B6C03F452
:101DB80000330993099B0EB0704700220192414AF3
:101DC800116C41F001011164126C02F001020192E0
:101DD800019AAAE7002202923A4A116C41F00201E4
:101DE8001164126C02F002020292029A3C4A934277
:101DF80027D100220692334A116C41F02001116468
:101E0800126C02F020020692069A364A934246D194
:101E180000230B932B4B1A6C42F040021A641B6C84
:101E280003F040030B930B9BC5E700220392254A5E
:101E3800116C41F004011164126C02F00402039267
:101E4800039A294A93421ED0284A9342A4D10022D9
:101E580008921C4A516C41F480315164526C02F46E
:101E680080320892089A224A9342A4D100230D9303
:101E7800144B1A6C42F480721A641B6C03F480735E
:101E88000D930D9B97E7002207920E4A516C41F083
:101E980002015164526C02F002020792079A154A35
:101EA8009342E0D100230C93064B1A6C42F0800257
:101EB8001A641B6C03F080030C930C9B7BE700BF38
:101EC8000000014000380240001000400048014076
:101ED8000004004000080040000C0040004401409D
:101EE8000014004000180040000401400040014078
:101EF80000200040001C004003683A4A934214D175
:101F080039494A6C22F001024A64384A934231D175
:101F180035490A6C22F010020A64354A934231D1DD
:101F2800314A536C23F4802317E0B3F1804F16D065
:101F3800304A934219D0304A93422CD02F4A9342C8
:101F4800E3D129490A6C22F008020A642C4A934218
:101F5800E3D1254A536C23F4003353647047224974
:101F68000A6C22F001020A64CFE71F490A6C22F0CA
:101F780002020A64234A934212D11B490A6C22F0D6
:101F880020020A64204A93421ED1174A136C23F098
:101F980040031364704714490A6C22F004020A646F
:101FA8001A4A93420BD01A4A9342CFD10E494A6C2F
:101FB80022F480324A64174A93420DD070470A4986
:101FC8004A6C22F002024A64134A9342F3D1064A49
:101FD800136C23F08003DCE7034A136C23F480734B
:101FE800D7E700BF00000140003802400010004061
:101FF800004801400004004000080040000C004078
:102008000044014000140040001800400004014052
:102018000040014000200040001C0040431C3AD012
:10202800294B98423AD018D8A3F54063984237D044
:102038000BD8A3F50063984234D003F58063984227
:1020480032D0B0F1804F31D0FEE7204B98422FD0EC
:1020580003F5806398422DD0F6E71D4B98422DD0AA
:102068000CD8A3F56443984226D003F56043984200
:1020780026D0A3F56443984220D0E5E7154B984253
:102088001ED003F5806398421CD0A3F500639842E4
:10209800DAD1182070476FF00D0070472B20704779
:1020A800322070471D2070471E2070471C20704743
:1020B80036207047372070472D2070472C207047F6
:1020C800192070471A20704700180040001000407F
:1020D8000004014000440140431C3AD02B4B984275
:1020E8003AD01CD8A3F58053984237D00BD8A3F523
:1020F8000063984234D003F58063984232D0B0F13F
:10210800804F31D0FEE7224B98422FD003F58063F1
:1021180098422DD0A3F5006398422BD0F2E71D4BCF
:10212800984229D00CD8A3F58043984226D003F5CD
:102138008063984224D0A3F56443984222D0E1E713
:10214800154B984220D003F580639842DAD11A20C3
:1021580070476FF00D0070472C2070473220704791
:102168001D2070471E2070471C207047372070477D
:102178002B20704736207047182070471B20704767
:102188002E2070472D20704719207047001C0040F2
:1021980000140040004001400044014038B5FFF7FA
:1021A800B3FD04460068FFF739FFD4E91212FEF7C1
:1021B800CBF82068FFF732FFFEF7F8F822681046E0
:1021C800FFF78AFF05461046FFF728FF85420BD028
:1021D8002846D4E91212FEF7B7F82068FFF77CFF0B
:1021E800BDE83840FEF7E2B838BD00002DE9F04FF1
:1021F80089B004468A46006D8F49DDF848B0984694
:102208009146FFF727FD8D490190606DFFF722FD8C
:102218008B490646A06DFFF71DFD8A490546E06D0E
:10222800FFF718FD019B0746002B00F00181626D46
:10223800013202D0002E00F0FB80A26D013202D0E4
:10224800002D00F0F580E26D013202D0002F00F081
:10225800EF8018463146FFF724FD29462060FFF736
:1022680020FD39462060FFF71CFD2060002800F0A3
:10227800DF80754B98424ED103F594335A6A42F089
:1022880010025A625A6A22F010025A62002202921E
:102298005A6C42F010025A645B6C03F0100302930C
:1022A800029B2523A4F860306349206DFFF7BAFC30
:1022B8001EB16249606DFFF7B5FC2DB16049A06D94
:1022C800FFF7B0FC4FF480752FB15E49E06D45F41F
:1022D8000075FFF7A7FC94F861205C4B94F9600047
:1022E800C4F81480271D43F8227023680022C4E92B
:1022F800013A0C23C4E9039BC4E906352262012193
:10230800FEF722F83846002E40F08D8009B0BDE86F
:10231800F04FFEF7B2BD4E4B984217D103F5FA3392
:102328001A6A42F400321A621A6A22F400321A62F5
:10233800002203921A6C42F400321A641B6C03F4F4
:1023480000330393039B4FF49373ABE7414B9842DD
:1023580017D103F5F8331A6A42F480221A621A6A0E
:1023680022F480221A62002204921A6C42F480221B
:102378001A641B6C03F480230493049B40F2272304
:1023880090E7354B984217D103F5F6331A6A42F4B1
:1023980000221A621A6A22F400221A6200220592A6
:1023A8001A6C42F400221A641B6C03F40023059390
:1023B800059B4FF44D7375E7284B984217D103F5E9
:1023C800F4331A6A42F480121A621A6A22F48012EA
:1023D8001A62002206921A6C42F480121A641B6C6C
:1023E80003F480130693069B40F235435AE71C4BCF
:1023F80098427FF459AF03F592335A6A42F02002AB
:102408005A625A6A22F020025A62002207925A6CD3
:1024180042F020025A645B6C03F020030793079B89
:1024280040F247533EE709B0BDE8F04FFEF7F7BC6E
:1024380009B0BDE8F08F00BFB83900082839000896
:10244800E0380008983800080010014040020020D9
:102458000044004000480040004C0040005000404C
:102468000014014010B418B15DF8044BFFF7BEBE6C
:102478005DF8044B7047000008B5074B90F86120E1
:1024880053F82200FEF72AFF00F02200A0F12203F1
:102498005842584108BD00BF4002002008B5074B0C
:1024A80090F8612053F82200FEF718FF00F0210091
:1024B800A0F121035842584108BD00BF4002002046
:1024C80070B50E46054610B94FF0FF3070BDFFF7E6
:1024D800D3FF04460028F7D12946012211F8623FAC
:1024E800337095F86100034B53F82000FEF717FF8F
:1024F8002046EBE74002002038B50D460446B8B147
:10250800FFF7BAFFA0B994F96000A564FDF75CFF76
:1025180094F86100074B04F1620153F8200001228E
:10252800FEF7FDFE94F96000BDE83840FDF73EBFB8
:1025380038BD00BF4002002038B515460446B8B182
:10254800C16490F96000FDF73FFFA36EB4F8721004
:1025580094F8610013FA81F1064BAAB253F82000EF
:10256800FEF7BDFC94F96000BDE83840FDF71EBFDA
:1025780038BD00BF4002002048B1436D013306D189
:1025880090F86120024B53F82200FEF777BE70479F
:102598004002002048B1436D013306D190F8612014
:1025A800024B53F82200FEF781BE7047400200201C
:1025B800436C04381847836C043818471FB5036800
:1025C8000446186810F0010013D0002200921A681F
:1025D80000925B680093009B201FFFF74DFF40BBF4
:1025E800012204F15E01204604B0BDE81040FEF768
:1025F80096BE196811F0020106D001901A6801927E
:102608005B680193019BE7E71A6812F0040206D0A1
:1026180002911A6802925B680293029BDCE71968D0
:102628000907D9D503921A6803925B680393039B41
:10263800D2E704B010BD000008B52520FDF7ECFE78
:10264800024B1868BDE80840FEF7C8BC40020020ED
:1026580008B52620FDF7E0FE034B586818B1BDE821
:102668000840FEF7BBBC08BD4002002008B5272083
:10267800FDF7D2FE034B986818B1BDE80840FEF795
:10268800ADBC08BD4002002008B53420FDF7C4FEEB
:10269800024BD868BDE80840FEF7A0BC4002002005
:1026A80008B53520FDF7B8FE024B1869BDE80840AB
:1026B800FEF794BC4002002008B54720FDF7ACFEA9
:1026C800024B5869BDE80840FEF788BC400200206C
:1026D80010B50A4C22681318EFF308818B4206D90B
:1026E800074B0C221A604FF0FF32104610BD054907
:1026F8000548091A8B42F3D22360F6E74000002010
:10270800980300200000022000040000FEE70000FB
:10271800024B16221A604FF0FF30704798030020D2
:102728000120704730B595B0102200210AA800F0AA
:10273800F7FB1422002103A800F0F2FB244C00222E
:102748000092236C43F080532364236C03F080537E
:102758000093009B1F4B01921A6842F480421A6052
:102768001B6803F480430193019B01214FF48033DC
:102778000225CDE908134FF480030820CDE90E5354
:102788004FF4A873CDE91003072308A812951393F3
:10279800FDF7E6FE00B1FEE70F23CDE9033505900E
:1027A8004FF4A0524FF48053052103A8CDE9062326
:1027B800FEF7B4F800B1FEE70290236B43F48013F0
:1027C8002363236B03F480130293029B15B030BD7F
:1027D8000038024000700040B0F80431B0F8000141
:1027E800181A00F03F007047B0F80431B0F8002123
:1027F8009BB293421ABFD0F8F830985C4FF0FF3084
:10280800704790F80231B0F80601C0B2834227BF82
:10281800C3F13F03C018C01A00F1FF30704707B575
:1028280003688DF807105B6801220DF107019847CE
:1028380003B05DF804FB13B50DF107010446FFF77B
:102848003FFE90B9B4F87030B4F86C20013303F04F
:102858003F03934209D0B4F87020616E9DF80700D9
:1028680092B29BB28854A4F8703002B010BD000038
:1028780038B5426FB0F8723012FA83F303F03F03B1
:10288800A0F87230B0F87220B0F86E3092B293426D
:102898001BD0B0F87220B0F872400D4995B203F120
:1028A8004002521B534203F03F03A4B202F03F021E
:1028B80058BF5A42C4F140039A4228BF1A46426799
:1028C800FFF73AFE4FF0FF3038BD0020FCE700BFAD
:1028D8007928000803682DE9F0479B680446884674
:1028E8001646984701232374D4F8E830B4F80291C7
:1028F80001338246C9F1400904F1940708D194F8DC
:102908000C312BB1002384F80C313846FFF734FE24
:10291800236820469B6898470028F9D035464D45DE
:1029280001D8554515D9D145236828BFD1464A460F
:1029380041465B6820469847236820469B6898472D
:10294800B4F80221A5EB0905C8448246C2F1400942
:10295800E5E7B4F80221D4F8FC005319402B1044E1
:1029680019D82A46414600F0CDFAA946B4F80231F2
:102978001D4405F03F05A4F802513846FFF78EFDC7
:1029880030B90C49C4F808914A463846FFF7D4FDD7
:102998003046BDE8F087C2F140094A46414600F09A
:1029A800B1FAD4F8FC00A5EB090208EB090100F024
:1029B800A9FADBE779280008037C33B1B0F80221D3
:1029C800B0F806319BB29A42FAD17047C0F8EC30A1
:1029D800009BC0F8F030914208BF4FF0FF3100F182
:1029E8001103C0E93921C0F8F83000F15102002381
:1029F800A0F80431C0E93F23A0F806317047000071
:102A080073B54FF47A7316460022C0E90123174BB9
:102A180003604FF0FF33C0F8E830154B9842044686
:102A28000D4616D1134B9A6DC0F8E820DB6DC0F83F
:102A3800E430012E4FF0FF3308BFC4F8E8300093AC
:102A48002046D4E939214FF0FF33FFF7BFFF02B02A
:102A580070BD09492846FFF70EF90849C4F8E8008F
:102A68002846FFF708F9C4F8E400E2E7C43B000889
:102A780058020020883A000828390008B8390008A8
:102A8800D0F8E830013310B504460ED10368DB688E
:102A9800984794F80C3143B9012384F80C3104F1B8
:102AA8009400BDE81040FFF775BD10BD02F00703A4
:102AB800023BDBB2042B37B50546C0F8101180F88D
:102AC8000D219CBF1848C45C02F0300388BF002465
:102AD800302B0DD101344FF4C06312F0080F14BF2E
:102AE8004FF400500020082C09D0092C18D0FEE71C
:102AF80012F020031CBF01344FF48063EDE700227D
:102B080005F1940400902046FFF7ACFC2846FFF737
:102B1800B7FF0649204603B0BDE83040FFF7ECBCDC
:102B28004FF48052ECE700BFB43B00083F28000890
:102B380010B50446FFF7A4FFB4F80421B4F8003137
:102B480092B29A421FBFD4F8F820D05C013303F048
:102B58003F0314BFA4F800314FF0FF3010BD000050
:102B6800024903480022FFF74BBF00BF0010014095
:102B78005802002013B50446084659B10191FDF7E3
:102B8800FFFA236801995B680246204602B0BDE857
:102B98001040184702B010BD08B5FFF7EBFF08BD9D
:102BA80010B5044600F058F9E060236820465B69D8
:102BB8009847002808DA00F04FF9E368C01AA368BC
:102BC8009842F2D34FF0FF3010BD2DE9F04107468F
:102BD8000C468E180D46B542A5EB040807D03846BA
:102BE800FFF7DEFF031E02DB05F8013BF3E7404673
:102BF800BDE8F0812DE9F0410746884616461D4696
:102C080073B100243846FFF7CBFF031E05DB4345AD
:102C180003D033550134A542F4D12046BDE8F081F4
:102C28001C46FAE708B50320FDF77CFBBDE8084021
:102C380000F030B908B5AFF30080FDF7E3FAFDF70F
:102C4800FBFA00F019F9FAE7DFF834D00D480E491D
:102C58000E4A002302E0D458C4500433C4188C42EE
:102C6800F9D30B4A0B4C002301E013600432A24253
:102C7800FBD3FFF71FF800F011F9FFF7DBFF7047F0
:102C88000000022000000020A8000020683C000886
:102C9800A8000020A0030020FEE70000C3B24A2BD2
:102CA8002DE9F0410D462AD82C4A52F8234000F469
:102CB800E0600443621C4ED0294EC4F3031704F0AD
:102CC8000F0856F8273023FA08F3DB0710D52549F3
:102CD8002046FEF712FF18B32046FEF7BFFD01237A
:102CE80003FA08F256F8273023EA020346F8273099
:102CF800052D1FD8DFE805F01F2B2527292D00F00B
:102D0800C002C02A27D1CF2B25D8174B00F03F028D
:102D180000F4E06053F82220104B53F82240C8E733
:102D280012492046FEF7E9FE0028D8D02046FEF7D3
:102D3800AFFDD4E7FEE700212046BDE8F041FEF7ED
:102D4800EBBE1021F8E72021F6E70321F4E7012183
:102D5800F2E70921F0E7BDE8F08100BF883A0008F2
:102D68006C03002038350008483A00085C35000834
:102D7800C3B24A2B17D8174A52F8233000F4E06040
:102D88001843C0F30313082B98BF134A00F00F0031
:102D980098BF52F82320114B88BF002253F82030E7
:102DA800A9B19361704700F0C002C02A0CD1CF2BA3
:102DB8000AD80B4B00F03F0200F4E06053F82220E1
:102DC800044B53F82230DBE74FF0FF30D9E71B0400
:102DD800E7E700BF883A000810000020E034000848
:102DE800483A0008C3B24A2B0CD8174A52F8233085
:102DF80000F4E0601843C0F30313082B16D900232E
:102E08001B69FFDE00F0C002C02A0CD1CF2B0AD804
:102E18000E4B00F03F0200F4E06053F822200A4B0A
:102E280053F82230E6E74FF0FF30E4E7084A00F0B5
:102E38000F0052F82320074B126953F820309343B0
:102E48000CBF012000207047883A0008483A000863
:102E580010000020E0340008FEF74ABD38B50446EB
:102E680048B1FEF745FD054600F016F8FEF740FDAF
:102E7800431BA342F8D338BD08B5044B2BB1044813
:102E8800FFF7AAFC08B1AFF3008008BD00000000FE
:102E980058020020FEF77CBD7047000070B50D4D4C
:102EA8000D4C641BA4100026A64209D10B4D0C4CF6
:102EB80000F0F4FA641BA4100026A64205D170BDE8
:102EC80055F8043B98470136EEE755F8043B984718
:102ED8000136F2E7503C0008503C0008503C00081E
:102EE800603C0008024B0146186800F08DB800BF2E
:102EF80044000020024B0146186800F019B800BFD2
:102F0800440000200A44914200F1FF3300D1704789
:102F180010B511F8014B03F8014F9142F9D110BDDA
:102F280002440346934200D1704703F8011BF9E7B6
:102F380037B5002944D051F8043C0190002BA1F189
:102F48000404B8BFE41800F0E5F81E4A01981368B5
:102F580033B96360146003B0BDE8304000F0E0B8F6
:102F6800A34208D9256861198B4201BF19685B68BB
:102F780049192160EDE71A465B680BB1A342FAD9FB
:102F880011685518A5420BD1246821445418A3424E
:102F98001160E0D11C685B68536021441160DAE776
:102FA80002D90C230360D6E7256861198B4204BF58
:102FB80019685B68636004BF491921605460CAE7F7
:102FC80003B030BD9003002070B50E4E0C4631683A
:102FD800054611B900F08CF830602146284600F00B
:102FE80087F8431C0AD0C41C24F00304A04207D06D
:102FF800211A284600F07CF8013001D14FF0FF3447
:10300800204670BD940300202DE9F041CD1C25F029
:10301800030508350C2D38BF0C25002D074601DBAC
:10302800A94205D90C233B6000263046BDE8F08153
:103038002E4E00F06FF833681C4634BB29463846DC
:10304800FFF7C2FF431C04464DD134682646002EC4
:1030580040D123683146384604EB030800F048F8AD
:1030680080453AD1216803356D1A25F003050835E6
:103078000C2D38BF0C2529463846FFF7A5FF01302F
:103088002BD023682B4423600EE02268521B1ED4E9
:103098000B2A16D96119A342256018BF59606368C5
:1030A80008BF316062514B60384604F10B0600F0EE
:1030B80037F826F00706231DF21AB6D09B1BA3503B
:1030C800B3E76268A3420CBF32605A60ECE723465C
:1030D8006468B2E734467668B9E70C233B60384643
:1030E80000F01EF8A1E72560DEE700BF900300208E
:1030F80038B5064D0023044608462B60FFF7E8FA6A
:10310800431C02D12B6803B1236038BD980300200B
:10311800704770470148FFF7FBBF00BF9C030020C2
:103128000148FFF7F6BF00BF9C03002008B5062042
:1031380000F02CF80120FFF7E9FA1F2938B50446FA
:103148000D4604D9162303604FF0FF3038BD426C9A
:1031580012B152F821304BB9204600F031F82A4616
:1031680001462046BDE8384000F018B8012B0AD0C7
:10317800591C03D1162303600120E7E7002442F815
:103188002540284698470020E0E70000024B01460A
:103198001868FFF7D2BF00BF4400002038B5074DBC
:1031A80000230446084611462B60FFF7B1FA431C7A
:1031B80002D12B6803B1236038BD00BF98030020FB
:1031C800FFF7AEBA2DE9F047089D04468E46002B5E
:1031D8004DD18A42944669D9B2FA82F252B101FAC3
:1031E80002F3C2F1200120FA01F10CFA02FC41EAD3
:1031F800030E94404FEA1C48210CBEFBF8F61FFA58
:103208008CF708FB16E341EA034306FB07F19942F2
:103218000AD91CEB030306F1FF3080F01F819942A5
:1032280040F21C81023E63445B1AA4B2B3FBF8F07F
:1032380008FB103344EA034400FB07F7A7420AD906
:103248001CEB040400F1FF3380F00A81A74240F22E
:1032580007816444023840EA0640E41B00261DB199
:10326800D4400023C5E900433146BDE8F0878B42CE
:1032780009D9002D00F0EF800026C5E9000130468D
:103288003146BDE8F087B3FA83F6002E4AD18B4267
:1032980002D3824200F2F980841A61EB0303012011
:1032A8009E46002DE0D0C5E9004EDDE702B9FFDEFD
:1032B800B2FA82F2002A40F09280A1EB0C014FEAA8
:1032C8001C471FFA8CFE0126200CB1FBF7F307FB05
:1032D800131140EA01410EFB03F0884208D91CEBA8
:1032E800010103F1FF3802D2884200F2CB80434645
:1032F800091AA4B2B1FBF7F007FB101144EA014424
:103308000EFB00FEA64508D91CEB040400F1FF31B2
:1033180002D2A64500F2BB800846A4EB0E0440EAA0
:1033280003409CE7C6F12007B34022FA07FC4CEAA9
:10333800030C20FA07F401FA06F31C43F9404FEA9C
:103348001C4900FA06F3B1FBF9F8200C1FFA8CFEB1
:1033580009FB181140EA014108FB0EF0884202FA05
:1033680006F20BD91CEB010108F1FF3A80F08880C6
:10337800884240F28580A8F102086144091AA4B283
:10338800B1FBF9F009FB101144EA014100FB0EFE04
:103398008E4508D91CEB010100F1FF346CD28E4533
:1033A8006AD90238614440EA0840A0FB0294A1EBC4
:1033B8000E01A142C846A64656D353D05DB1B3EB21
:1033C800080261EB0E0101FA07F722FA06F3F14051
:1033D8001F43C5E9007100263146BDE8F087C2F1F8
:1033E8002003D8400CFA02FC21FA03F39140014370
:1033F8004FEA1C471FFA8CFEB3FBF7F007FB1036A9
:103408000B0C43EA064300FB0EF69E4204FA02F454
:1034180008D91CEB030300F1FF382FD29E422DD9A7
:10342800023863449B1B89B2B3FBF7F607FB1633DC
:1034380041EA034106FB0EF38B4208D91CEB01015C
:1034480006F1FF3816D28B4214D9023E6144C91ADC
:1034580046EA004638E72E46284605E70646E3E6EC
:103468001846F8E64B45A9D2B9EB020864EB0C0EF6
:103478000138A3E74646EAE7204694E74046D1E705
:10348800D0467BE7023B614432E7304609E76444B3
:10349800023842E708B5FFF749FE0000F8B500BF5B
:1034A800F8BC08BC9E467047F8B500BFF8BC08BC1D
:0434B8009E46704775
:1034BC0048756D616E20446574656374656400487D
:1034CC00756D616E204E6F74204465746563746510
:1034DC006400000001000000020000000400000075
:1034EC000800000010000000200000004000000058
:1034FC008000000000010000000200000004000039
:10350C000008000000100000002000000040000037
:10351C000080000000000000000000000102030415
:10352C000607080900000000010203040400000063
:10353C00007400400380000005000000007400408F
:10354C0003000100FFFFFFFF00000000000000006F
:10355C00000000000000004012810000000100008B
:10356C00000C00401282000001000000000000402E
:10357C001201010001010000000C004012020100C8
:10358C000200000000000040128101000201000056
:10359C00000C0040128201000202000000400140B9
:1035AC001283000003000000000000401201020022
:1035BC0003010000000C0040120202000302000094
:1035CC000040014012030100050000000000004013
:1035DC00128100000501000000040140128310005C
:1035EC0006000000000400401282000006010000EA
:1035FC00001C004012890000070000000000014080
:10360C0012811000070100000004004012020100AA
:10361C0007020000000401401283100007030000A1
:10362C00002000401289000008000000000001404A
:10363C00128100000900000000000140120101008D
:10364C000A00000000000140128101000B00000084
:10365C0000000140120102000F00000000000040B9
:10366C001281000010000000000001401201110046
:10367C001001000000040040128201001002000042
:10368C000004014012031100110000000000014071
:10369C00128111001101000000040040120202000E
:1036AC0011020000000401401283110013000000FD
:1036BC000000004012010100140000000004004052
:1036CC0012820000150000000004004012020100EC
:1036DC0016000000000800401282000017000000D5
:1036EC000008004012020100180000000008004011
:1036FC0012820100180100000044014012830000F6
:10370C00190000000008004012020200190100001C
:10371C0000480140128300001A0000000000004025
:10372C00128101001B000000000000401201020089
:10373C001D00000000000140128110001E0000005E
:10374C0000000140120111001E01000000040140A4
:10375C00120311001E020000001800401289000024
:10376C001F00000000000140128111001F01000029
:10377C0000040140128311001F02000000180040D9
:10378C001209010026000000000400401282000013
:10379C0026010000000401401283000027000000F5
:1037AC000004004012020100270100000004014047
:1037BC0012030100280000000004004012820100E6
:1037CC0028010000000401401283010029000000C0
:1037DC000004004012020200290100000004014014
:1037EC00120302003C00000000080040128200009E
:1037FC003D00000000080040120201003E000000E5
:10380C0000080040128201003F0000000008004048
:10381C00120202004500000000400140128300002B
:10382C004600000000400140120301004800000067
:10383C00000001401281100049000000000001400E
:10384C00128100004A00000000000140120111002A
:10385C004B00000000000140120101004C00000070
:10386C0000000140128111004D00000000000140D9
:10387C00128101004E000000000001401201020004
:10388C00FFFFFFFF00000000000000000000000030
:10389C0000440040120700000B0000000010014023
:1038AC00120700001D000000004800401207000035
:1038BC003300000000440040120700003B000000F1
:1038CC000048004012070000FFFFFFFF000000004F
:1038DC00000000000100000000440040120700003E
:1038EC000C00000000100140120700001E00000038
:1038FC000048004012070000340000000044004063
:10390C00120700003C0000000048004012070000B5
:10391C00FFFFFFFF0000000000000000010000009E
:10392C00004C00401208000003000000004400405E
:10393C00120700000A0000000010014012070000EE
:10394C001700000000100140120700001B000000CF
:10395C00004800401207000027000000001401403E
:10396C00120800002B000000004C00401208000060
:10397C002B0100000048004012070000320000003C
:10398C0000500040120800003600000000440040C7
:10399C001207000039000000004800401207000028
:1039AC00FFFFFFFF0000000000000000000000000F
:1039BC00004C0040120800000200000000440040CF
:1039CC00120700000900000000100140120700005F
:1039DC001600000000100140120700001A00000041
:1039EC0000480040120700002600000000140140AF
:1039FC00120800002A000000004C004012080000D1
:103A0C002A01000000480040120700002C000000B2
:103A1C000050004012080000350000000044004037
:103A2C001207000038000000004800401207000098
:103A3C00FFFFFFFF00000000000000002C00000052
:103A4C002D0000002E0000002F00000030000000B0
:103A5C003100000032000000330000003400000090
:103A6C003500000036000000370000003800000070
:103A7C00390000003A0000003B000000410000004B
:103A8C0040000000190000001800000017000000A2
:103A9C0016000000150000001300000037000000A5
:103AAC003600000035000000340000003300000038
:103ABC003200000031000000300000002C0000003B
:103ACC002B0000002A0000000F0000000C0000007A
:103ADC000B0000000A0000000900000008000000B4
:103AEC00290000002800000027000000260000002C
:103AFC003F0000003E0000003D0000003C000000C4
:103B0C003B0000003A0000003900000038000000C3
:103B1C001F000000420000004300000044000000B1
:103B2C0045000000460000002D00000020000000B1
:103B3C002100000022000000230000000000000013
:103B4C00010000000200000003000000040000005F
:103B5C0005000000240000002500000010000000FB
:103B6C0011000000060000000700000047000000E4
:103B7C0048000000490000004A0000004B00000013
:103B8C004C0000004D0000004E0000004F000000F3
:103B9C001A0000001B0000001C0000001D000000AB
:103BAC001E000000140000000600070008000000C2
:103BBC00000000000000000027280008DD28000895
:103BCC000B280008C1290008E1270008392B000840
:103BDC00F1270008D32B0008FD2B00080000000083
:103BEC0000000000000000000000000000000000C9
:103BFC0000000000000000000000000000000000B9
:103C0C0000000000000000000000000000000000A8
:103C1C000000000000000000000000000000000098
:103C2C000000000000000000000000000000000088
:0C3C3C000000000000000000000000007C
:083C480084F5FF7F010000007C
:103C50002D2C0008F1010008351A0008692B000816
:083C6000CD010008BD1A0008A7
:103C6800020000000D00000001000000100000002C
:103C7800000002400004024000080240000C02401C
:103C8800001002400014024000180240001C0240CC
:103C98000020024000300240000000000024F40030
:103CA800A00300204800002000000000083C000895
:103CB800283C0008E83B0008000000000000000065
:103CC80000000000000000000000000000000000EC
:103CD80000000000000000000000000000000000DC
:103CE80000000000000000000000000000000000CC
:103CF80000000000000000000000000000000000BC
:083D08000000000000000000B3
:0400000508002C5172
:00000001FF
